11:42:04.766656 IP BP-Linux8.ssh > 192.168.190.130.50019: Flags [P.], seq 2243505564:2243505672, ack 1972915080, win 312, options [nop,nop,TS val 102917262 ecr 377952805], length 108
	0x0000:  4512 00a0 ed8e 4000 4006 99c5 c0a8 731e
	0x0010:  c0a8 be82 0016 c363 85b9 2d9c 7598 4b88
	0x0020:  8018 0138 b384 0000 0101 080a 0622 648e
	0x0030:  1687 1a25 ae15 ed2e 0c2f 724d ce51 edd7
	0x0040:  7d02 fe64 9fe0 4a61 9f85 9b92 25bd 5d15
	0x0050:  3f8a c2ce 11b4 31b1 a9ce 379e a9e1 a0f6
	0x0060:  770c 9e91 fba6 f9b6 9a66 6776 b1ac ceb7
	0x0070:  de8b ae6c cd01 6ab9 ec07 836d 3e04 8404
	0x0080:  f841 fc74 fc9f 4070 a9e0 2021 ecff 230a
	0x0090:  3839 d986 d960 3ae4 768b d58b 8042 546f
11:42:04.766694 IP BP-Linux8.ssh > 192.168.190.130.50019: Flags [P.], seq 108:144, ack 1, win 312, options [nop,nop,TS val 102917262 ecr 377952805], length 36
	0x0000:  4512 0058 ed8f 4000 4006 9a0c c0a8 731e
	0x0010:  c0a8 be82 0016 c363 85b9 2e08 7598 4b88
	0x0020:  8018 0138 b33c 0000 0101 080a 0622 648e
	0x0030:  1687 1a25 7542 8c6a 4716 b8b1 814a a832
	0x0040:  1ffd 18e5 a520 f808 5b8e beac 19b7 4796
	0x0050:  8bdc 9155 ee2a d6b3
11:42:04.766723 IP BP-Linux8.ssh > 192.168.190.130.50019: Flags [P.], seq 144:252, ack 1, win 312, options [nop,nop,TS val 102917262 ecr 377952805], length 108
	0x0000:  4512 00a0 ed90 4000 4006 99c3 c0a8 731e
	0x0010:  c0a8 be82 0016 c363 85b9 2e2c 7598 4b88
	0x0020:  8018 0138 b384 0000 0101 080a 0622 648e
	0x0030:  1687 1a25 d509 725b 22b9 f3ea 425a 9a86
	0x0040:  6237 27c1 e44c 90d8 f41a 0379 9244 9974
	0x0050:  a96d c4db c22d a980 f551 d0ad 645a 9a07
	0x0060:  a058 b9fd dfd1 9eed 1200 6e1d 5006 e57d
	0x0070:  0f4a e594 88ad fc35 b000 73be 4a0a 3c01
	0x0080:  4377 aec1 409a 9655 ef7e a495 7b54 a3ef
	0x0090:  70ff ef58 54c6 fe50 0b48 74d4 eea8 5218
11:42:04.766744 IP BP-Linux8.ssh > 192.168.190.130.50019: Flags [P.], seq 252:288, ack 1, win 312, options [nop,nop,TS val 102917262 ecr 377952805], length 36
	0x0000:  4512 0058 ed91 4000 4006 9a0a c0a8 731e
	0x0010:  c0a8 be82 0016 c363 85b9 2e98 7598 4b88
	0x0020:  8018 0138 b33c 0000 0101 080a 0622 648e
	0x0030:  1687 1a25 762c a5f3 a57f 03d2 b4e8 ea21
	0x0040:  0e92 71fb f4eb 1c74 b6c8 277d bfef 0b4a
	0x0050:  2678 46b9 82e9 b470
11:42:04.785366 IP 192.168.190.130.50019 > BP-Linux8.ssh: Flags [.], ack 108, win 7319, options [nop,nop,TS val 377953205 ecr 102917262], length 0
	0x0000:  4548 0034 0000 4000 3f06 888a c0a8 be82
	0x0010:  c0a8 731e c363 0016 7598 4b88 85b9 2e08
	0x0020:  8010 1c97 d1eb 0000 0101 080a 1687 1bb5
	0x0030:  0622 648e
11:42:04.785384 IP 192.168.190.130.50019 > BP-Linux8.ssh: Flags [.], ack 144, win 7318, options [nop,nop,TS val 377953205 ecr 102917262], length 0
	0x0000:  4548 0034 0000 4000 3f06 888a c0a8 be82
	0x0010:  c0a8 731e c363 0016 7598 4b88 85b9 2e2c
	0x0020:  8010 1c96 d1c8 0000 0101 080a 1687 1bb5
	0x0030:  0622 648e
11:42:04.785406 IP 192.168.190.130.50019 > BP-Linux8.ssh: Flags [.], ack 252, win 7316, options [nop,nop,TS val 377953205 ecr 102917262], length 0
	0x0000:  4548 0034 0000 4000 3f06 888a c0a8 be82
	0x0010:  c0a8 731e c363 0016 7598 4b88 85b9 2e98
	0x0020:  8010 1c94 d15e 0000 0101 080a 1687 1bb5
	0x0030:  0622 648e
11:42:04.785454 IP 192.168.190.130.50019 > BP-Linux8.ssh: Flags [.], ack 288, win 7320, options [nop,nop,TS val 377953205 ecr 102917262], length 0
	0x0000:  4548 0034 0000 4000 3f06 888a c0a8 be82
	0x0010:  c0a8 731e c363 0016 7598 4b88 85b9 2ebc
	0x0020:  8010 1c98 d136 0000 0101 080a 1687 1bb5
	0x0030:  0622 648e
11:42:05.768334 IP BP-Linux8.58466 > ns1.lan.rt.domain: 16550+ PTR? 130.190.168.192.in-addr.arpa. (46)
	0x0000:  4500 004a 852f 4000 4011 7ca6 c0a8 731e
	0x0010:  0afa fa0c e462 0035 0036 3915 40a6 0100
	0x0020:  0001 0000 0000 0000 0331 3330 0331 3930
	0x0030:  0331 3638 0331 3932 0769 6e2d 6164 6472
	0x0040:  0461 7270 6100 000c 0001
11:42:05.769075 IP ns1.lan.rt.domain > BP-Linux8.58466: 16550 NXDomain 0/1/0 (112)
	0x0000:  4500 008c 5aee 0000 7f11 a7a5 0afa fa0c
	0x0010:  c0a8 731e 0035 e462 0078 d28a 40a6 8183
	0x0020:  0001 0000 0001 0000 0331 3330 0331 3930
	0x0030:  0331 3638 0331 3932 0769 6e2d 6164 6472
	0x0040:  0461 7270 6100 000c 0001 c014 0006 0001
	0x0050:  0000 00e0 0036 0673 7472 6f70 680f 756e
	0x0060:  6976 2d73 742d 6574 6965 6e6e 6502 6672
	0x0070:  0004 726f 6f74 c041 7877 ddde 0000 5460
	0x0080:  0000 0e10 000d 2f00 0000 2a30
11:42:06.669393 IP 192.168.190.130.50245 > BP-Linux8.ssh: Flags [P.], seq 1601828178:1601828214, ack 1851233244, win 2048, options [nop,nop,TS val 377955086 ecr 102913805], length 36
	0x0000:  454a 0058 0000 4000 3f06 8864 c0a8 be82
	0x0010:  c0a8 731e c445 0016 5f79 f552 6e57 93dc
	0x0020:  8018 0800 75e1 0000 0101 080a 1687 230e
	0x0030:  0622 570d c167 b0ba c172 db7a 1e38 e40f
	0x0040:  0a94 fd3c 2f13 9192 051b c1d3 9f72 c960
	0x0050:  033f 2d17 be1e 9b97
11:42:06.669906 IP BP-Linux8.ssh > 192.168.190.130.50245: Flags [P.], seq 1:37, ack 36, win 291, options [nop,nop,TS val 102917738 ecr 377955086], length 36
	0x0000:  4512 0058 0ec3 4000 4006 78d9 c0a8 731e
	0x0010:  c0a8 be82 0016 c445 6e57 93dc 5f79 f576
	0x0020:  8018 0123 b33c 0000 0101 080a 0622 666a
	0x0030:  1687 230e 771a f582 5b1c a09c bc71 d367
	0x0040:  2bdc 6c9b 85f6 7553 3f2f b1ff 7c7e 5c0d
	0x0050:  4b59 befd 5c60 df70
11:42:06.679262 IP BP-Linux8.53220 > ns1.lan.rt.domain: 54801+ A? lacampora.org. (31)
	0x0000:  4500 003b 85ea 4000 4011 7bfa c0a8 731e
	0x0010:  0afa fa0c cfe4 0035 0027 3906 d611 0100
	0x0020:  0001 0000 0000 0000 096c 6163 616d 706f
	0x0030:  7261 036f 7267 0000 0100 01
11:42:06.679971 IP ns1.lan.rt.domain > BP-Linux8.53220: 54801 1/0/0 A 184.107.43.74 (47)
	0x0000:  4500 004b 5aef 0000 7f11 a7e5 0afa fa0c
	0x0010:  c0a8 731e 0035 cfe4 0037 b579 d611 8180
	0x0020:  0001 0001 0000 0000 096c 6163 616d 706f
	0x0030:  7261 036f 7267 0000 0100 01c0 0c00 0100
	0x0040:  0100 0002 fa00 04b8 6b2b 4a
11:42:06.681188 IP BP-Linux8.ssh > 192.168.190.130.50245: Flags [P.], seq 37:153, ack 36, win 291, options [nop,nop,TS val 102917741 ecr 377955086], length 116
	0x0000:  4512 00a8 0ec4 4000 4006 7888 c0a8 731e
	0x0010:  c0a8 be82 0016 c445 6e57 9400 5f79 f576
	0x0020:  8018 0123 b38c 0000 0101 080a 0622 666d
	0x0030:  1687 230e 8e58 97e7 c03f 84dc 29f0 fb1a
	0x0040:  1e6f e655 0adf d185 de4c a1c2 f55e d73e
	0x0050:  eba2 4cd6 fdf6 244c 2f89 b755 8ada 3c64
	0x0060:  90d8 0c88 e966 5e86 2441 d155 4547 8013
	0x0070:  441d 5f4f 25fe 3b01 5528 14cf 091c c89b
	0x0080:  6f59 75d4 6935 69f4 2a60 6685 93c5 54ce
	0x0090:  5844 292a e4b5 437a e65f 3f18 7cd0 2e14
	0x00a0:  1154 c87e 2768 110d
11:42:06.681222 IP BP-Linux8.ssh > 192.168.190.130.50245: Flags [P.], seq 153:189, ack 36, win 291, options [nop,nop,TS val 102917741 ecr 377955086], length 36
	0x0000:  4512 0058 0ec5 4000 4006 78d7 c0a8 731e
	0x0010:  c0a8 be82 0016 c445 6e57 9474 5f79 f576
	0x0020:  8018 0123 b33c 0000 0101 080a 0622 666d
	0x0030:  1687 230e 79e6 850e f616 0a08 40a4 bc58
	0x0040:  85cf d091 f353 94cc 6096 4d49 0300 6f7c
	0x0050:  a247 3c9c c15d 1435
11:42:06.681248 IP 190-0-175-100.gba.solunet.com.ar.2465 > 184.107.43.74.http: Flags [S], seq 326991629:326991749, win 512, length 120: HTTP
	0x0000:  4500 00a0 b570 0000 4006 73cd be00 af64
	0x0010:  b86b 2b4a 09a1 0050 137d 7f0d 4c58 ccca
	0x0020:  5002 0200 f1fc 0000 5858 5858 5858 5858
	0x0030:  5858 5858 5858 5858 5858 5858 5858 5858
	0x0040:  5858 5858 5858 5858 5858 5858 5858 5858
	0x0050:  5858 5858 5858 5858 5858 5858 5858 5858
	0x0060:  5858 5858 5858 5858 5858 5858 5858 5858
	0x0070:  5858 5858 5858 5858 5858 5858 5858 5858
	0x0080:  5858 5858 5858 5858 5858 5858 5858 5858
	0x0090:  5858 5858 5858 5858 5858 5858 5858 5858
11:42:06.681274 IP 190-0-175-100.gba.solunet.com.ar.2466 > 184.107.43.74.http: Flags [S], seq 920517760:920517880, win 512, length 120: HTTP
	0x0000:  4500 00a0 2b46 0000 4006 fdf7 be00 af64
	0x0010:  b86b 2b4a 09a2 0050 36dd fc80 7663 b048
	0x0020:  5002 0200 439f 0000 5858 5858 5858 5858
	0x0030:  5858 5858 5858 5858 5858 5858 5858 5858
	0x0040:  5858 5858 5858 5858 5858 5858 5858 5858
	0x0050:  5858 5858 5858 5858 5858 5858 5858 5858
	0x0060:  5858 5858 5858 5858 5858 5858 5858 5858
	0x0070:  5858 5858 5858 5858 5858 5858 5858 5858
	0x0080:  5858 5858 5858 5858 5858 5858 5858 5858
	0x0090:  5858 5858 5858 5858 5858 5858 5858 5858
11:42:06.681294 IP 190-0-175-100.gba.solunet.com.ar.2467 > 184.107.43.74.http: Flags [S], seq 556803824:556803944, win 512, length 120: HTTP
	0x0000:  4500 00a0 e7a0 0000 4006 419d be00 af64
	0x0010:  b86b 2b4a 09a3 0050 2130 26f0 40d8 014f
	0x0020:  5002 0200 1361 0000 5858 5858 5858 5858
	0x0030:  5858 5858 5858 5858 5858 5858 5858 5858
	0x0040:  5858 5858 5858 5858 5858 5858 5858 5858
	0x0050:  5858 5858 5858 5858 5858 5858 5858 5858
	0x0060:  5858 5858 5858 5858 5858 5858 5858 5858
	0x0070:  5858 5858 5858 5858 5858 5858 5858 5858
	0x0080:  5858 5858 5858 5858 5858 5858 5858 5858
	0x0090:  5858 5858 5858 5858 5858 5858 5858 5858
11:42:06.681312 IP 190-0-175-100.gba.solunet.com.ar.2468 > 184.107.43.74.http: Flags [S], seq 1921632185:1921632305, win 512, length 120: HTTP
	0x0000:  4500 00a0 c251 0000 4006 66ec be00 af64
	0x0010:  b86b 2b4a 09a4 0050 7289 c7b9 1ab1 f5a8
	0x0020:  5002 0200 530a 0000 5858 5858 5858 5858
	0x0030:  5858 5858 5858 5858 5858 5858 5858 5858
	0x0040:  5858 5858 5858 5858 5858 5858 5858 5858
	0x0050:  5858 5858 5858 5858 5858 5858 5858 5858
	0x0060:  5858 5858 5858 5858 5858 5858 5858 5858
	0x0070:  5858 5858 5858 5858 5858 5858 5858 5858
	0x0080:  5858 5858 5858 5858 5858 5858 5858 5858
	0x0090:  5858 5858 5858 5858 5858 5858 5858 5858
11:42:06.681328 IP 190-0-175-100.gba.solunet.com.ar.2469 > 184.107.43.74.http: Flags [S], seq 1170972654:1170972774, win 512, length 120: HTTP
	0x0000:  4500 00a0 14ea 0000 4006 1454 be00 af64
	0x0010:  b86b 2b4a 09a5 0050 45cb 9fee 5f03 4a85
	0x0020:  5002 0200 0e64 0000 5858 5858 5858 5858
	0x0030:  5858 5858 5858 5858 5858 5858 5858 5858
	0x0040:  5858 5858 5858 5858 5858 5858 5858 5858
	0x0050:  5858 5858 5858 5858 5858 5858 5858 5858
	0x0060:  5858 5858 5858 5858 5858 5858 5858 5858
	0x0070:  5858 5858 5858 5858 5858 5858 5858 5858
	0x0080:  5858 5858 5858 5858 5858 5858 5858 5858
	0x0090:  5858 5858 5858 5858 5858 5858 5858 5858
11:42:06.681345 IP 190-0-175-100.gba.solunet.com.ar.2470 > 184.107.43.74.http: Flags [S], seq 754504426:754504546, win 512, length 120: HTTP
	0x0000:  4500 00a0 6704 0000 4006 c239 be00 af64
	0x0010:  b86b 2b4a 09a6 0050 2cf8 d2ea 2920 6c03
	0x0020:  5002 0200 089f 0000 5858 5858 5858 5858
	0x0030:  5858 5858 5858 5858 5858 5858 5858 5858
	0x0040:  5858 5858 5858 5858 5858 5858 5858 5858
	0x0050:  5858 5858 5858 5858 5858 5858 5858 5858
	0x0060:  5858 5858 5858 5858 5858 5858 5858 5858
	0x0070:  5858 5858 5858 5858 5858 5858 5858 5858
	0x0080:  5858 5858 5858 5858 5858 5858 5858 5858
	0x0090:  5858 5858 5858 5858 5858 5858 5858 5858